:0400000025EF06F0F2
:1000080000C018F001C017F00CC016F00DC015F0B4
:10001800F2A05DD081CF4BF0F290252A2550010A3D
:1000280008E1D76AD66A260E4E6E000E4F6E36DB92
:100038004ED0D6CF4CF0000E4D6ED7CF01F0006AEF
:1000480000504C24056E01504D20066E05C04CF042
:1000580006C04DF0D59E036A19C002F0006A016A15
:100068000550002606500122000E022203227EDBE4
:10007800BD0E046E370E056E060E066E720E076E06
:1000880010DA00C046F001C047F002C048F003C0D3
:1000980049F000C04EF001C04FF002C050F003C05C
:1000A80051F0380E526E000E536EBEDB010E606EBC
:1000B80040D8010E4E6E010E4F6E380E506E000E77
:1000C800516E75DB1A0E4E6E000E4F6EE7DAF2A413
:1000D80004D0F294192AD76AD66A18C000F017C05B
:0C00E80001F016C00CF015C00DF0110066
:1000F4000F0E0C6E470E0D6E0D2EFED70C2EFCD778
:06010400000000001200E3
:06010A00000000001200DD
:0A011000210E0D6E0D2EFED7120019
:10011A000B820BAE97EF00F0036802680168006873
:08012A000A360232FF0E12003A
:080132000AAE029E000E12004D
:10013A0060BE02D0839E01D0838E60BC02D0839CB5
:10014A0001D0838C60BA02D0839A01D0838A60B8C6
:10015A0002D0839801D083884AB002D0838401D028
:10016A0083948386CDDF839660B602D0839E01D0C6
:10017A00838E60B402D0839C01D0838C60B202D09B
:10018A00839A01D0838A60B002D0839801D0838891
:10019A004AB002D0838401D083948386B1DF8396E8
:0C01AA004AA002D0A2DF01D0AEDF12009C
:1001B6000B840BAEE6EF00F0010E036E026A016AD5
:0A01C600006A0A360232FF0E120032
:0E01D000026A016A006A086A036A000E1200E1
:1001DE000CB031EF01F00CA2D7EF01F00E6A000E59
:1001EE00026448EF01F0F00E0214D8A413EF01F0F0
:1001FE00023A01380F0B02260138F00B016E00385F
:10020E000F0B01260038F00B006E08380F0B00267E
:10021E000838F00B086E0E84D89002BE2CEF01F059
:10022E0008360036013602360E2A02BE2CEF01F0D9
:10023E0008360036013602360E2A02BE2CEF01F0C9
:10024E0008360036013602360E2A0E500364CDEF04
:10025E0001F0035E0BBC08AED2EF01F0D880800E29
:10026E0008640030000E002201220222D8A0D2EF34
:10027E0001F0023201320032034AD7EF01F0D2EF21
:10028E0001F001C002F000C001F008C000F0086AE1
:10029E00000E0E8602647FEF01F0F00E0214D8A459
:1002AE0067EF01F0023A01380F0B02260138F00B0E
:1002BE00016E00380F0B01260038F00B006E0E8415
:1002CE00D89002BE2CEF01F00036013602360E2A0F
:1002DE0002BE2CEF01F00036013602360E2A02BEA7
:1002EE002CEF01F00036013602360E2A2CEF01F00B
:1002FE0001C002F000C001F0006A000E0E960E88DA
:10030E000264ACEF01F0F00E0214D8A497EF01F0E6
:10031E00023A01380F0B02260138F00B016E0E84E3
:10032E00D89002BE2CEF01F0013602360E2A02BE24
:10033E002CEF01F0013602360E2A02BE2CEF01F030
:10034E00013602360E2A2CEF01F001C002F0016ACE
:10035E00000E0E860264DCEF01F0F00E0214D8A43B
:10036E00BBEF01F0023A0E84D89002BE2CEF01F0E2
:10037E0002360E2A02BE2CEF01F002360E2A02BE03
:10038E002CEF01F002360E2A2CEF01F0010E0C6E4E
:10039E000BDFDFEF01F0020E0C6EC4DEDFEF01F0BB
:1003AE00040E0C6EB3DEDFEF01F0080E0C6E09DFEB
:0203BE0012002B
:1003C0005CC004F05DC005F004C002F005C003F09D
:1003D000044A052A5EC000F05FC001F05E4A5F2A51
:1003E00000C0E9FF01C0EAFF02C0E1FF03C0E2FF75
:1003F000EECFE6FF02C0E9FF03C0EAFFEE5201E0E4
:0C040000E3D75CC000F05DC001F012000A
:10040C000D6A086A0050D8B4000C04180A6E0ABEB3
:10041C000D1E0B6A04AE02D0041E042A00AE02D0DC
:10042C00001E002A005004100A6E0ABE1FD0045091
:10043C00085E003600340836045008260036060ED6
:10044C000C6E00340836045000B0085E00A008267C
:10045C0000360C2EF6D700A008260BB015D00DAE2A
:10046C00000C001E002A081E082A000C04AE09D03D
:10047C0000BE04D00050086E006AF1D7006A002A52
:10048C00000C001E0B2AD3D7082A0450085CD8A4F1
:0E049C00E6D7086A002A00AEE2D7FF0C120075
:1004AA00086A096A000E07620364DAEF02F0025072
:1004BA0006180A6E075003267E0ED8A06BEF02F0CC
:1004CA00035ED8B0DEEF02F06FEF02F0035ED8A051
:1004DA00E2EF02F0028E068E02C00EF001C00BF0AF
:1004EA0000C00DF000500402F4CF0CF001500502D8
:1004FA00F4CF00F0F3CF08F00402F3500C26F450C6
:10050A000822000E00220D500502F3500C26F4506A
:10051A000822000E002202500402F3500826F4506A
:10052A00002202500502016A000E0122F350002641
:10053A00F45001220D500602F3500826F45000220E
:10054A00026A000E012202220B500602F350002614
:10055A00F4500122000E02220E500602F350012628
:10056A00F450022202BEC2EF02F00836003601360B
:10057A0002360306D8B4E2EF02F0D5EF02F0D880D3
:10058A00800E08640030000E002201220222D8A048
:10059A00D5EF02F0023201320032034ADEEF02F0F6
:1005AA000AAE029E000EE4EF02F0010E0CDEE4EF4A
:1005BA0002F0020EADDDE4EF02F0040EF7DD1200E8
:0C05CA004A905CC060F0B4DD4A80120072
:1005D6000A6A0350D8A40A800750D8A40A820A508F
:1005E600D8B44EEF03F0030AD8B407EF03F00AB00D
:1005F60002EF03F006AE4CEF03F04AEF03F002AE53
:100606004AEF03F04CEF03F00250800B0A6E029E95
:100616000650800B069E0A18D8B418EF03F00A504D
:10062600D8B44AEF03F04CEF03F00750035CD8B49C
:1006360022EF03F0D8A03EEF03F044EF03F006509C
:10064600025CD8B42CEF03F0D8A03EEF03F044EFE1
:1006560003F00550015CD8B436EF03F0D8A03EEFA6
:1006660003F044EF03F00450005CD8B44EEF03F0FF
:10067600D8B044EF03F00A52D8B44CEF03F04AEF77
:1006860003F00A52D8B44AEF03F04CEF03F0D880D7
:0E0696001200D8901200D880D88412001200F2
:1006A400506A50504E24E96E000E4F20EA6EEE520E
:1006B4000BE050504E24E96E000E4F20EA6EEECF50
:0A06C4005CF081DF502AEDD7120030
:1006CE00959695949598959A959C959E83968394D8
:1006DE00839E839C839A839806DD05DD04DD838AE1
:1006EE00838883860BDD8396FEDC838607DD839607
:1006FE00FADC838603DD8396F6DC83988386FEDC44
:10070E008396F1DC8386FADC8396839A838E8386C6
:10071E00F5DC8396E8DC839E83888386EFDC839604
:10072E0083988386EBDC8396DEDC8386E7DC839618
:10073E0083888386E3DC8396D6DC83988386DEDC2F
:10074E008396838E838C838A83888386D7DC839675
:06075E00CADC4A80120013
:100764000900F5CFE6FF0006FBE10106F9E11200FE
:100774000050086E0150006E0250016E0350026E6C
:10078400036A0B6A0C6A9E0E036E0A6A02AED7EF06
:1007940003F0081E001E011E021E082AD8B4002AF7
:1007A400D8B4012AD8B4022A0A8E020E0C6E15DDC2
:0207B400120031
:1007B6000FD0800E4E6E19D0C00E4E6E16D0940E0F
:1007C6004E6E13D0D40E4E6E10D0800E4E6E0DD0DF
:1007D6004E50010AEEE04E50020AEEE04E50030A79
:1007E600EEE04E50040AEEE0F0D74F04006E4E5095
:1007F600002600C04EF000C060F09CDC4A90526AB1
:1008060052505024E96E000E5120EA6EEE520BE073
:1008160052505024E96E000E5120EA6EEECF5CF085
:0A082600D1DE522AEDD74A801200FD
:100830005A6A5B6A4EC056F04FC057F050C058F02D
:1008400051C059F05950FF0A08E15850FF0A05E11C
:100850005750FF0A02E15650FF0A0CE152C05CF00B
:1008600053C05DF0210E5E6E000E5F6EA9DD030EBB
:10087000006EEAD1010E546E58AE0ED0800E58189C
:10088000006E00C058F0542A52C0E1FF53C0E2FF8E
:100890002D0EE66E524A532A000E006E591808E1DA
:1008A0000050581805E10050571802E15650000A50
:1008B0000BE152C05CF053C05DF01F0E5E6E000E87
:1008C0005F6E7EDD006AC0D15950FF0A08E15850C2
:1008D000000A05E15750000A02E15650000A0CE1F7
:1008E00052C05CF053C05DF0340E5E6E000E5F6E61
:1008F00067DD54C000F0A8D1000E046E000E056E36
:10090000000E066E7F0E076E56C000F057C001F055
:1009100058C002F059C003F05EDE010ED8B0000EE0
:10092000006E00521BE056C000F057C001F058C0E6
:1009300002F059C003F0000E046E000E056E200E8A
:10094000066E820E076EB1DD00C056F001C057F092
:1009500002C058F003C059F05B06CED7000E046EFB
:10096000000E056E200E066E820E076E56C000F059
:1009700057C001F058C002F059C003F02CDE000E41
:10098000D8B0010E006E00521BE056C000F057C0F8
:1009900001F058C002F059C003F0CD0E046ECC0E29
:1009A000056E4C0E066E7B0E076E7FDD00C056F0A6
:1009B00001C057F002C058F003C059F05B2ACED7EF
:1009C000FF0E5614086EFF0E5714096E7F0E581452
:1009D0000A6E000E59140B6E08C004F009C005F031
:1009E0000AC006F00BC007F0043604900536063640
:1009F0000736000E5614006E000E5714016E000EDE
:100A00005814026EFF0E5914036E00C056F001C058
:100A100057F002C058F003C059F004505610006E51
:100A200005505710016E06505810026E07505910AD
:100A3000036E00C056F001C057F002C058F003C06A
:100A400059F07F0E595C006E00C055F0010E596ED2
:100A500000C004F056C000F057C001F058C002F0CA
:100A600059C003F0045007E000360090013602360A
:100A70000336FF0FF8D700C056F001C057F002C090
:100A800058F003C059F052C0E1FF53C0E2FF595083
:100A9000300FE66E524A532A800E5B18006E800EAD
:100AA000010A005C08E3800E060A006E800E5B18E7
:100AB000005C01E30AD052C0E1FF53C0E2FF2E0EFA
:100AC000E66E524A532A010E5A6E060E556E555066
:100AD000000A54E0596A56C000F057C001F058C0EF
:100AE00002F059C003F0003600900136023603369A
:100AF0000036009001360236033656500026575015
:100B00000122585002225950032200C056F001C061
:100B100057F002C058F003C059F056C000F057C05B
:100B200001F058C002F059C003F0003600900136C1
:100B30000236033600C056F001C057F002C058F02C
:100B400003C059F052C0E1FF53C0E2FF5950300FCB
:100B5000E66E524A532A5A50000A0EE15B065B5079
:100B6000000A0AE152C0E1FF53C0E2FF2E0EE66E1A
:100B7000524A532A010E5A6E5506A9D7FF0E522427
:100B8000E96EFF0E5320EA6EEE50300A05E1010EC9
:100B9000525E000E535AF2D7FF0E5224E96EFF0E3A
:100BA0005320EA6EEE502E0A04E1010E525E000E52
:100BB000535A5B50000A42E052C0E1FF53C0E2FFCB
:100BC000650EE66E524A532A800E5B18006E800E48
:100BD000000A005C0BE252C0E1FF53C0E2FF2D0EA1
:100BE000E66E524A532A5B5000085B6E5BC055F0BC
:100BF000800E090A006E800E5B18005C0EE20A0E81
:100C0000046E55C000F002DC52C0E1FF53C0E2FFA9
:100C10000050300FE66E524A532A0A0E046E55C039
:100C200000F006EC02F008C000F052C0E1FF53C033
:100C3000E2FF0050300FE66E524A532A52C0E1FFE5
:0A0C400053C0E2FFE66A006A1200EA
:100C4A0047EC06F0070EC16E956A938881CF4BF088
:100C5A00F290F286870ED56EF294F28AF28E32DD27
:040C6A00FFD7FFD7DA
:100C8E0010EE19F01F0E006E010E016E6E0EF66E56
:0E0C9E000C0EF76E000EF86EB2EC03F01200B2
:010C6E000085
:050C6F00207365630025
:020C740030004E
:040C76004E614E007D
:010C7A000079
:0E0C7B0043616C63756C616E646F2E2E2E00EB
:040C8900494E46008A
:020000040030CA
:0D000100220F0EFF0181FF0FC00FE00F4026
:00000001FF
