:1000000016EF00F00000000000EF00F0000000001C
:0A0010000000000000000000F3D71C
:10001C000900F5CFE6FF0006FBE10106F9E112004D
:10002C00010E156E020E166E040E176E080E186E6B
:10003C00100E196E200E1A6E400E1B6E800E1C6E6A
:10004C00946A826A1D6A8280150E0B6E4B0E0C6EC2
:10005C00BE0E0D6E0D2EFED70C2EFCD70B2EFAD726
:10006C0000001D50080AD8B41D6A150EE96E000E6A
:10007C00EA6E1D50E926D8B0EA2AEECF82FF030EB5
:10008C000B6E080E0C6E770E0D6E0D2EFED70C2E11
:10009C00FCD70B2EFAD71D2A826A020E0B6E040EA9
:1000AC000C6EBA0E0D6E0D2EFED70C2EFCD70B2E31
:0800BC00FAD70000D6D7FFD7E8
:020000040030CA
:0D000100220F0EFF0181FF0FC00FE00F4026
:00000001FF
