:1000000016EF00F00000000000EF00F0000000001C
:0A0010000000000000000000F3D71C
:10001C000900F5CFE6FF0006FBE10106F9E112004D
:10002C003F0E156E060E166E5B0E176E4F0E186E8B
:10003C00660E196E6D0E1A6E7D0E1B6E070E1C6E03
:10004C007F0E1D6E6F0E1E6E070EC16E956A926A44
:10005C00836A030E806E216A0A0E215C3AE2206AE2
:10006C000A0E205C34E21F6A190E1F5C2EE2010E90
:10007C00806E150EE96E000EEA6E2150E926D8B09E
:10008C00EA2AEECF83FF340E0C6EF10E0D6E0D2EA0
:10009C00FED70C2EFCD700000000020E806E150E51
:1000AC00E96E000EEA6E2050E926D8B0EA2AEECFAF
:1000BC0083FF340E0C6EF10E0D6E0D2EFED70C2E32
:1000CC00FCD7000000001F2ACFD7202AC9D7212A2D
:0600DC00C3D7C1D7FFD716
:020000040030CA
:0D000100220F0EFF0181FF0FC00FE00F4026
:00000001FF
