:1000000016EF00F00000000000EF00F0000000001C
:0A0010000000000000000000F3D71C
:10001C000900F5CFE6FF0006FBE10106F9E112004D
:10002C00800E156E010E166E946A826A16C002F06E
:10003C000232029E02C016F015C000F0003600908D
:10004C0000C015F00250002600C017F000C082FF5F
:10005C00050E0B6E0F0E0C6EF10E0D6E0D2EFED7E7
:10006C000C2EFCD70B2EFAD7826A020E0B6E040EE6
:10007C000C6EBA0E0D6E0D2EFED70C2EFCD70B2E61
:10008C00FAD700001650080A04E11632169E1536EF
:06009C001590CCD7FFD740
:020000040030CA
:0D000100220F0EFF0181FF0FC00FE00F4026
:00000001FF
