:0400000091EF08F084
:1000080000C018F001C017F00CC016F00DC015F0B4
:10001800F2A406D0C284480ED76EE50ED66EF294CE
:100028009EAC77D0060E016EC3CF00F0015004E0FD
:100038000032009EFF0FFBD71DEC06F000C036F023
:1000480001C037F002C038F003C039F036C023F0E1
:1000580037C024F038C025F039C026F0C4CF00F0EE
:10006800000E016E00360090013600360090013611
:100078002BEC06F036C004F037C005F038C006F0A7
:1000880039C007F03FEC06F000C023F001C024F0AF
:1000980002C025F003C026F0E50E046EFF0E056EC3
:1000A8001F0E066E770E076E1FD900C023F001C021
:1000B80024F002C025F003C026F0000E046E000EE6
:1000C800056E480E066E850E076E0ED900C023F029
:1000D80001C024F002C025F003C026F000C03AF0A9
:1000E80001C03BF002C03CF003C03DF0280E3E6E5C
:1000F800000E3F6E28DB010E4C6E3FD8010E3A6EA3
:10010800010E3B6E280E3C6E000E3D6E52EC08F060
:100118009E9C18C000F017C001F016C00CF015C066
:040128000DF01100C5
:10012C000F0E0C6E470E0D6E0D2EFED70C2EFCD73F
:06013C00000000001200AB
:06014200000000001200A5
:0A014800210E0D6E0D2EFED71200E1
:100152000B840BAEB4EF00F0010E036E026A016A6B
:0A016200006A0A360232FF0E120096
:08016C000AAE029E000E120013
:0E017400026A016A006A086A036A000E12003D
:100182004CBE02D0839E01D0838E4CBC02D0839C95
:1001920001D0838C4CBA02D0839A01D0838A4CB8A6
:1001A20002D0839801D0838827B002D0838401D003
:1001B20083948386C5DF83964CB602D0839E01D09A
:1001C200838E4CB402D0839C01D0838C4CB202D07B
:1001D200839A01D0838A4CB002D0839801D083885D
:1001E20027B002D0838401D083948386A9DF8396CB
:0C01F20027A002D09ADF01D0A6DF120087
:1001FE000B820BAE09EF01F003680268016800681C
:08020E000A360232FF0E120055
:100216000A6A0350D8A40A800750D8A40A820A5052
:10022600D8B46EEF01F0030AD8B427EF01F00AB094
:1002360022EF01F006AE6CEF01F06AEF01F002AEBC
:100246006AEF01F06CEF01F00250800B0A6E029E1D
:100256000650800B069E0A18D8B438EF01F00A50F3
:10026600D8B46AEF01F06CEF01F00750035CD8B424
:1002760042EF01F0D8A05EEF01F064EF01F0065006
:10028600025CD8B44CEF01F0D8A05EEF01F064EF49
:1002960001F00550015CD8B456EF01F0D8A05EEF2E
:1002A60001F064EF01F00450005CD8B46EEF01F089
:1002B600D8B064EF01F00A52D8B46CEF01F06AEFDF
:1002C60001F00A52D8B46AEF01F06CEF01F0D88061
:0E02D6001200D8901200D880D88412001200B6
:0C02E400279048C04CF04BDF2780120030
:1002F000086A096A000E07620364FDEF01F002500C
:1003000006180A6E075003267E0ED8A08EEF01F065
:10031000035ED8B001EF02F092EF01F0035ED8A0C7
:1003200005EF02F0028E068E02C00EF001C00BF047
:1003300000C00DF000500402F4CF0CF00150050293
:10034000F4CF00F0F3CF08F00402F3500C26F45081
:100350000822000E00220D500502F3500C26F45026
:100360000822000E002202500402F3500826F45026
:10037000002202500502016A000E0122F3500026FD
:10038000F45001220D500602F3500826F4500022CA
:10039000026A000E012202220B500602F3500026D0
:1003A000F4500122000E02220E500602F3500126E4
:1003B000F450022202BEE5EF01F0083600360136A5
:1003C00002360306D8B405EF02F0F8EF01F0D8804A
:1003D000800E08640030000E002201220222D8A004
:1003E000F8EF01F0023201320032034A01EF02F06D
:1003F0000AAE029E000E07EF02F0010EBBDE07EF11
:1004000002F0020EFCDE07EF02F0040EA2DE120084
:1004100048C004F049C005F004C002F005C003F074
:10042000044A052A4AC000F04BC001F04A4A4B2A50
:1004300000C0E9FF01C0EAFF02C0E1FF03C0E2FF24
:10044000EECFE6FF02C0E9FF03C0EAFFEE5201E093
:0C045000E3D748C000F049C001F01200E2
:10045C000CB070EF02F00CA216EF03F00E6A000E57
:10046C00026487EF02F0F00E0214D8A452EF02F0EF
:10047C00023A01380F0B02260138F00B016E0038DE
:10048C000F0B01260038F00B006E08380F0B0026FE
:10049C000838F00B086E0E84D89002BE6BEF02F099
:1004AC0008360036013602360E2A02BE6BEF02F019
:1004BC0008360036013602360E2A02BE6BEF02F009
:1004CC0008360036013602360E2A0E5003640CEF45
:1004DC0003F0035E0BBC08AE11EF03F0D880800E66
:1004EC0008640030000E002201220222D8A011EF75
:1004FC0003F0023201320032034A16EF03F011EF1F
:10050C0003F001C002F000C001F008C000F0086A5E
:10051C00000E0E860264BEEF02F0F00E0214D8A498
:10052C00A6EF02F0023A01380F0B02260138F00B4D
:10053C00016E00380F0B01260038F00B006E0E8494
:10054C00D89002BE6BEF02F00036013602360E2A4E
:10055C0002BE6BEF02F00036013602360E2A02BEE6
:10056C006BEF02F00036013602360E2A6BEF02F00A
:10057C0001C002F000C001F0006A000E0E960E8859
:10058C000264EBEF02F0F00E0214D8A4D6EF02F0E6
:10059C00023A01380F0B02260138F00B016E0E8463
:1005AC00D89002BE6BEF02F0013602360E2A02BE64
:1005BC006BEF02F0013602360E2A02BE6BEF02F030
:1005CC00013602360E2A6BEF02F001C002F0016A0E
:1005DC00000E0E8602641BEF03F0F00E0214D8A47A
:1005EC00FAEF02F0023A0E84D89002BE6BEF02F0E2
:1005FC0002360E2A02BE6BEF02F002360E2A02BE43
:10060C006BEF02F002360E2A6BEF02F0010E0C6E4D
:10061C009ADD1EEF03F0020E0C6EA2DD1EEF03F04E
:10062C00040E0C6EE6DD1EEF03F0080E0C6E9CDD66
:02063C001200AA
:10063E000D6A086A0050D8B4000C04180A6E0ABE7F
:10064E000D1E0B6A04AE02D0041E042A00AE02D0A8
:10065E00001E002A005004100A6E0ABE1FD004505D
:10066E00085E003600340836045008260036060EA2
:10067E000C6E00340836045000B0085E00A0082648
:10068E0000360C2EF6D700A008260BB015D00DAEF6
:10069E00000C001E002A081E082A000C04AE09D009
:1006AE0000BE04D00050086E006AF1D7006A002A1E
:1006BE00000C001E0B2AD3D7082A0450085CD8A4BD
:0E06CE00E6D7086A002A00AEE2D7FF0C120041
:1006DC000C6A0E6A0250D8A487EF03F001C002F036
:1006EC0000C001F0006A0E860250D8A487EF03F018
:1006FC0001C002F0016A0E960E880250D8B499EF30
:10070C0003F00E50035ED8A4D8A09EEF03F0D8904F
:10071C0002BEA3EF03F0003601360236032E8EEF35
:10072C0003F09EEF03F0010E0C6E1EDDA6EF03F03E
:10073C00020E0C6E08DDA6EF03F0040E0C6E10DD3D
:02074C00120099
:10074E00466A476A3AC042F03BC043F03CC044F0B0
:10075E003DC045F04550FF0A08E14450FF0A05E14F
:10076E004350FF0A02E14250FF0A0CE13EC048F03E
:10077E003FC049F0190E4A6E000E4B6E42DE030E5C
:10078E00006EE9D1010E406E44AE0ED0800E4418BC
:10079E00006E00C044F0402A3EC0E1FF3FC0E2FFC1
:1007AE002D0EE66E3E4A3F2A000E006E451808E1F9
:1007BE000050441805E10050431802E14250000A6F
:1007CE000BE13EC048F03FC049F01D0E4A6E000ED0
:1007DE004B6E17DE006ABFD14550FF0A08E1445048
:1007EE00000A05E14350000A02E14250000A0CE102
:1007FE003EC048F03FC049F01F0E4A6E000E4B6ED1
:10080E0000DE40C000F0A7D1000E046E000E056E93
:10081E00000E066E7F0E076E42C000F043C001F060
:10082E0044C002F045C003F0EFDC010ED8B0000E5C
:10083E00006E00521BE042C000F043C001F044C005
:10084E0002F045C003F0000E046E000E056E200E81
:10085E00066E820E076E45DD00C042F001C043F009
:10086E0002C044F003C045F04706CED7000E046E1A
:10087E00000E056E200E066E820E076E42C000F050
:10088E0043C001F044C002F045C003F0BDDC000ED1
:10089E00D8B0010E006E00521BE042C000F043C003
:1008AE0001F044C002F045C003F0CD0E046ECC0E34
:1008BE00056E4C0E066E7B0E076E13DD00C042F009
:1008CE0001C043F002C044F003C045F0472ACED722
:1008DE00FF0E4214086EFF0E4314096E7F0E441471
:1008EE000A6E000E45140B6E08C004F009C005F028
:1008FE000AC006F00BC007F0043604900536063623
:10090E000736000E4214006E000E4314016E000EE8
:10091E004414026EFF0E4514036E00C042F001C077
:10092E0043F002C044F003C045F004504210006E84
:10093E0005504310016E06504410026E07504510CC
:10094E00036E00C042F001C043F002C044F003C089
:10095E0045F07F0E455C006E00C041F0010E456E05
:10096E0000C004F042C000F043C001F044C002F0E9
:10097E0045C003F0045007E0003600900136023601
:10098E000336FF0FF8D700C042F001C043F002C09B
:10099E0044F003C045F03EC0E1FF3FC0E2FF4550CA
:1009AE00300FE66E3E4A3F2A800E4718006E800ECC
:1009BE00010A005C08E3800E060A006E800E4718DE
:1009CE00005C01E30AD03EC0E1FF3FC0E2FF2E0E05
:1009DE00E66E3E4A3F2A010E466E060E416E4150AD
:1009EE00000A54E0456A42C000F043C001F044C022
:1009FE0002F045C003F00036009001360236033691
:100A0E00003600900136023603364250002643501F
:100A1E000122445002224550032200C042F001C080
:100A2E0043F002C044F003C045F042C000F043C0A2
:100A3E0001F044C002F045C003F0003600900136CC
:100A4E000236033600C042F001C043F002C044F04B
:100A5E0003C045F03EC0E1FF3FC0E2FF4550300FFE
:100A6E00E66E3E4A3F2A4650000A0EE147064750C0
:100A7E00000A0AE13EC0E1FF3FC0E2FF2E0EE66E25
:100A8E003E4A3F2A010E466E4106A9D7FF0E3E246E
:100A9E00E96EFF0E3F20EA6EEE50300A05E1010EC0
:100AAE003E5E000E3F5AF2D7FF0E3E24E96EFF0E59
:100ABE003F20EA6EEE502E0A04E1010E3E5E000E5D
:100ACE003F5A4750000A41E03EC0E1FF3FC0E2FFFF
:100ADE00650EE66E3E4A3F2A800E4718006E800E67
:100AEE00000A005C0BE23EC0E1FF3FC0E2FF2D0EAC
:100AFE00E66E3E4A3F2A47500008476E47C041F017
:100B0E00800E090A006E800E4718005C0EE20A0E77
:100B1E00046E41C000F08CDD3EC0E1FF3FC0E2FF3D
:100B2E000050300FE66E3E4A3F2A0A0E046E41C058
:100B3E0000F07EDD08C000F03EC0E1FF3FC0E2FFE6
:100B4E000050300FE66E3E4A3F2A3EC0E1FF3FC0E6
:080B5E00E2FFE66A006A1200E2
:100B6600959695949598959A959C959E839683943B
:100B7600839E839C839A839896EC00F096EC00F013
:100B860096EC00F0838A83888386A1EC00F0839636
:100B960096EC00F08386A1EC00F0839696EC00F0CC
:100BA6008386A1EC00F0839696EC00F0839883860A
:100BB600A1EC00F0839696EC00F08386A1EC00F0A1
:100BC6008396839A838E8386A1EC00F0839696ECB7
:100BD60000F0839E83888386A1EC00F08396839839
:100BE6008386A1EC00F0839696EC00F08386A1EC58
:100BF60000F0839683888386A1EC00F0839696ECBA
:100C060000F083988386A1EC00F08396838E838C14
:100C1600838A83888386A1EC00F0839696EC00F0A5
:040C26002780120011
:100C2A000900F5CFE6FF0006FBE10106F9E1120033
:100C3A0000C008F00B6A0C6A9E0E036E0A6A026A0A
:0C0C4A00016A006A020E0C6E04DC12004D
:100C56000050086E0150006E016A026A036A0B6A50
:100C66000C6A960E036E0A6A00C001F008C000F016
:080C7600086A026A30DD120079
:100C7E00025006180E6E086A096A0B6A0350076462
:100C8E0032EF07F006500A6E068E028E03500B6E80
:100C9E000750036E000E0B6482EF06F00B50075EDA
:100CAE00D8B423EF07F0070E0764F1EF06F0075EE6
:100CBE0000C008F001C000F002C001F0026A074E49
:100CCE0023EF07F00764C6EF06F0075E00C008F0DA
:100CDE0001C000F0016A074E23EF07F00764A4EF8E
:100CEE0006F0075E00C008F0006A074E23EF07F01B
:100CFE0007648BEF06F00AC002F005C001F004C0D5
:100D0E0000F0086A4FEF08F0030E076496EF06F046
:100D1E00075E08380F0B086E074E23EF07F0D890CA
:100D2E000832074E23EF07F0D8900832074E23EF14
:100D3E0007F0D890083223EF07F0030E0764B5EFE3
:100D4E0006F0075E08380F0B086E0038F00B082609
:100D5E0000380F0B006E074E23EF07F0D8900032CD
:100D6E000832074E23EF07F0D89000320832074EB4
:100D7E0023EF07F0D8900032083223EF07F0030E6E
:100D8E000764DDEF06F0075E08380F0B086E0038BB
:100D9E00F00B082600380F0B006E0138F00B002602
:100DAE0001380F0B016E074E23EF07F0D89001327A
:100DBE0000320832074E23EF07F0D890013200328E
:100DCE000832074E23EF07F0D89001320032083276
:100DDE0023EF07F0030E07640EEF07F0075E0838E7
:100DEE000F0B086E0038F00B082600380F0B006E44
:100DFE000138F00B002601380F0B016E0238F00B94
:100E0E00012602380F0B026E074E23EF07F0D89023
:100E1E000232013200320832074E23EF07F0D8902B
:100E2E000232013200320832074E23EF07F0D8901B
:100E3E000232013200320832096A000E0EAE17EF8E
:100E4E0008F0081E001E011E021E082A00220122A2
:100E5E00022217EF08F00750D8A438EF07F04FEF33
:100E6E0008F0096A02C00AF0028E068E0750035C73
:100E7E00076ED8B40AEF08F0070E0764D8EF07F034
:100E8E00075E0450096E0550046E0650056E066A24
:100E9E00074E0AEF08F0070E0764ADEF07F0075E86
:100EAE000450096E0550046E056A074E0AEF08F0ED
:100EBE00070E07648BEF07F0075E0450096E046A95
:100ECE00074E0AEF08F0070E076472EF07F00AC02C
:100EDE0002F04FEF08F0030E07647DEF07F0075E98
:100EEE0009380F0B096E074E0AEF08F0D890093239
:100EFE00074E0AEF08F0D8900932074E0AEF08F0B5
:100F0E00D89009320AEF08F0030E07649CEF07F041
:100F1E00075E09380F0B096E0438F00B09260438EA
:100F2E000F0B046E074E0AEF08F0D8900432093208
:100F3E00074E0AEF08F0D89004320932074E0AEF36
:100F4E0008F0D890043209320AEF08F0030E076455
:100F5E00C4EF07F0075E09380F0B096E0438F00B6B
:100F6E00092604380F0B046E0538F00B04260538DD
:100F7E000F0B056E074E0AEF08F0D89005320432BB
:100F8E000932074E0AEF08F0D890053204320932C2
:100F9E00074E0AEF08F0D8900532043209320AEFF4
:100FAE0008F0030E0764F5EF07F0075E09380F0B24
:100FBE00096E0438F00B092604380F0B046E053841
:100FCE00F00B042605380F0B056E0638F00B0526C0
:100FDE0006380F0B066E074E0AEF08F0D890063251
:100FEE00053204320932074E0AEF08F0D890063265
:100FFE00053204320932074E0AEF08F0D890063255
:10100E00053204320932086A000E0EAE17EF08F0F0
:10101E00091E041E051E061E092A0422052206228A
:10102E0009500826045000220550012206500222C3
:10103E000EBE2EEF08F0D8A03DEF08F002320132BE
:10104E0000320832033E3DEF08F049EF08F0D8B009
:10105E0043EF08F0000E081E001E011E021E082A95
:10106E000022012202220A7E43EF08F0010E0C6ECE
:10107E002EEC02F051EF08F0020E0C6E2EEC02F088
:10108E0051EF08F0040E0C6EFFEC00F051EF08F07B
:06109E00000E0C6E1200B2
:1010A4000FD0800E3A6E19D0C00E3A6E16D0940E40
:1010B4003A6E13D0D40E3A6E10D0800E3A6E0DD024
:1010C4003A50010AEEE03A50020AEEE03A50030ABE
:1010D400EEE03A50040AEEE0F0D73B04006E3A50DA
:1010E400002600C03AF000C04CF0C1EC00F027909C
:1010F4003E6A3E503C24E96E000E3D20EA6EEE52FC
:101104000CE03E503C24E96E000E3D20EA6EEECF2A
:0E11140048F072EC01F03E2AECD72780120062
:10112200B0EC08F09682710EC26E400EC16E9E9CAB
:101132009D8CF28CF28E040ED56EF294F28A480ED9
:10114200D76EE50ED66E0EDDD58E0000FED7FFD728
:1011600010EE19F00E0E006E010E016E520EF66EAC
:0E117000110EF76E000EF86E15EC06F0120070
:041152004E614E009C
:02115600300067
:04115800494E4600B6
:04115C00000000008F
:020000040030CA
:0D000100220F0EFF0181FF0FC00FE00F4026
:00000001FF
