:0400000086EF08F08F
:1000080000C018F001C017F00CC016F00DC015F0B4
:10001800060E016EC3CF00F0015004E00032009ECE
:10002800FF0FFBD712EC06F000C036F001C037F026
:1000380002C038F003C039F036C01FF037C020F0D6
:1000480038C021F039C022F0C4CF00F0000E016E94
:1000580000360090013600360090013620EC06F09C
:1000680036C004F037C005F038C006F039C007F0D4
:1000780034EC06F000C01FF001C020F002C021F0EF
:1000880003C022F0E50E046EFF0E056E1F0E066E0D
:10009800770E076E1ED900C01FF001C020F002C005
:1000A80021F003C022F000C03AF001C03BF002C0CA
:1000B8003CF003C03DF0280E3E6E000E3F6E38DB6C
:1000C800010E4C6E4FD8010E3A6E010E3B6E280E93
:1000D8003C6E000E3D6E47EC08F09E9C0B0E0B6EBE
:1000E800260E0C6E5D0E0D6E0D2EFED70C2EFCD757
:1000F8000B2EFAD700000000C284827018C000F0EE
:0E01080017C001F016C00CF015C00DF011006C
:100116000F0E0C6E470E0D6E0D2EFED70C2EFCD755
:06012600000000001200C1
:06012C00000000001200BB
:0A013200210E0D6E0D2EFED71200F7
:10013C000B840BAEA9EF00F0010E036E026A016A8C
:0A014C00006A0A360232FF0E1200AC
:080156000AAE029E000E120029
:0E015E00026A016A006A086A036A000E120053
:10016C004CBE02D0839E01D0838E4CBC02D0839CAB
:10017C0001D0838C4CBA02D0839A01D0838A4CB8BC
:10018C0002D0839801D0838827B002D0838401D019
:10019C0083948386C5DF83964CB602D0839E01D0B0
:1001AC00838E4CB402D0839C01D0838C4CB202D091
:1001BC00839A01D0838A4CB002D0839801D0838873
:1001CC0027B002D0838401D083948386A9DF8396E1
:0C01DC0027A002D09ADF01D0A6DF12009D
:1001E8000B820BAEFEEF00F003680268016800683E
:0801F8000A360232FF0E12006C
:100200000A6A0350D8A40A800750D8A40A820A5068
:10021000D8B463EF01F0030AD8B41CEF01F00AB0C0
:1002200017EF01F006AE61EF01F05FEF01F002AEF3
:100230005FEF01F061EF01F00250800B0A6E029E49
:100240000650800B069E0A18D8B42DEF01F00A5014
:10025000D8B45FEF01F061EF01F00750035CD8B450
:1002600037EF01F0D8A053EF01F059EF01F006503D
:10027000025CD8B441EF01F0D8A053EF01F059EF80
:1002800001F00550015CD8B44BEF01F0D8A053EF5A
:1002900001F059EF01F00450005CD8B463EF01F0B5
:1002A000D8B059EF01F00A52D8B461EF01F05FEF16
:1002B00001F00A52D8B45FEF01F061EF01F0D8808D
:0E02C0001200D8901200D880D88412001200CC
:0C02CE00279048C04CF04BDF2780120046
:1002DA00086A096A000E07620364F2EF01F002502D
:1002EA0006180A6E075003267E0ED8A083EF01F087
:1002FA00035ED8B0F6EF01F087EF01F0035ED8A0F5
:10030A00FAEF01F0028E068E02C00EF001C00BF069
:10031A0000C00DF000500402F4CF0CF001500502A9
:10032A00F4CF00F0F3CF08F00402F3500C26F45097
:10033A000822000E00220D500502F3500C26F4503C
:10034A000822000E002202500402F3500826F4503C
:10035A00002202500502016A000E0122F350002613
:10036A00F45001220D500602F3500826F4500022E0
:10037A00026A000E012202220B500602F3500026E6
:10038A00F4500122000E02220E500602F3500126FA
:10039A00F450022202BEDAEF01F0083600360136C6
:1003AA0002360306D8B4FAEF01F0EDEF01F0D88077
:1003BA00800E08640030000E002201220222D8A01A
:1003CA00EDEF01F0023201320032034AF6EF01F09A
:1003DA000AAE029E000EFCEF01F0010EBBDEFCEF3E
:1003EA0001F0020EFCDEFCEF01F0040EA2DE1200A8
:1003FA0048C004F049C005F004C002F005C003F08B
:10040A00044A052A4AC000F04BC001F04A4A4B2A66
:10041A0000C0E9FF01C0EAFF02C0E1FF03C0E2FF3A
:10042A00EECFE6FF02C0E9FF03C0EAFFEE5201E0A9
:0C043A00E3D748C000F049C001F01200F8
:100446000CB065EF02F00CA20BEF03F00E6A000E83
:1004560002647CEF02F0F00E0214D8A447EF02F01B
:10046600023A01380F0B02260138F00B016E0038F4
:100476000F0B01260038F00B006E08380F0B002614
:100486000838F00B086E0E84D89002BE60EF02F0BA
:1004960008360036013602360E2A02BE60EF02F03A
:1004A60008360036013602360E2A02BE60EF02F02A
:1004B60008360036013602360E2A0E50036401EF66
:1004C60003F0035E0BBC08AE06EF03F0D880800E87
:1004D60008640030000E002201220222D8A006EF96
:1004E60003F0023201320032034A0BEF03F006EF4B
:1004F60003F001C002F000C001F008C000F0086A75
:10050600000E0E860264B3EF02F0F00E0214D8A4B9
:100516009BEF02F0023A01380F0B02260138F00B6E
:10052600016E00380F0B01260038F00B006E0E84AA
:10053600D89002BE60EF02F00036013602360E2A6F
:1005460002BE60EF02F00036013602360E2A02BE07
:1005560060EF02F00036013602360E2A60EF02F036
:1005660001C002F000C001F0006A000E0E960E886F
:100576000264E0EF02F0F00E0214D8A4CBEF02F012
:10058600023A01380F0B02260138F00B016E0E8479
:10059600D89002BE60EF02F0013602360E2A02BE85
:1005A60060EF02F0013602360E2A02BE60EF02F05C
:1005B600013602360E2A60EF02F001C002F0016A2F
:1005C600000E0E86026410EF03F0F00E0214D8A49B
:1005D600EFEF02F0023A0E84D89002BE60EF02F00E
:1005E60002360E2A02BE60EF02F002360E2A02BE64
:1005F60060EF02F002360E2A60EF02F0010E0C6E7A
:100606009ADD13EF03F0020E0C6EA2DD13EF03F07A
:10061600040E0C6EE6DD13EF03F0080E0C6E9CDD87
:020626001200C0
:100628000D6A086A0050D8B4000C04180A6E0ABE95
:100638000D1E0B6A04AE02D0041E042A00AE02D0BE
:10064800001E002A005004100A6E0ABE1FD0045073
:10065800085E003600340836045008260036060EB8
:100668000C6E00340836045000B0085E00A008265E
:1006780000360C2EF6D700A008260BB015D00DAE0C
:10068800000C001E002A081E082A000C04AE09D01F
:1006980000BE04D00050086E006AF1D7006A002A34
:1006A800000C001E0B2AD3D7082A0450085CD8A4D3
:0E06B800E6D7086A002A00AEE2D7FF0C120057
:1006C6000C6A0E6A0250D8A47CEF03F001C002F057
:1006D60000C001F0006A0E860250D8A47CEF03F039
:1006E60001C002F0016A0E960E880250D8B48EEF51
:1006F60003F00E50035ED8A4D8A093EF03F0D89071
:1007060002BE98EF03F0003601360236032E83EF61
:1007160003F093EF03F0010E0C6E1EDD9BEF03F06A
:10072600020E0C6E08DD9BEF03F0040E0C6E10DD5E
:020736001200AF
:10073800466A476A3AC042F03BC043F03CC044F0C6
:100748003DC045F04550FF0A08E14450FF0A05E165
:100758004350FF0A02E14250FF0A0CE13EC048F054
:100768003FC049F0190E4A6E000E4B6E42DE030E72
:10077800006EE9D1010E406E44AE0ED0800E4418D2
:10078800006E00C044F0402A3EC0E1FF3FC0E2FFD7
:100798002D0EE66E3E4A3F2A000E006E451808E10F
:1007A8000050441805E10050431802E14250000A85
:1007B8000BE13EC048F03FC049F01D0E4A6E000EE6
:1007C8004B6E17DE006ABFD14550FF0A08E144505E
:1007D800000A05E14350000A02E14250000A0CE118
:1007E8003EC048F03FC049F0230E4A6E000E4B6EE3
:1007F80000DE40C000F0A7D1000E046E000E056EAA
:10080800000E066E7F0E076E42C000F043C001F076
:1008180044C002F045C003F0EFDC010ED8B0000E72
:10082800006E00521BE042C000F043C001F044C01B
:1008380002F045C003F0000E046E000E056E200E97
:10084800066E820E076E45DD00C042F001C043F01F
:1008580002C044F003C045F04706CED7000E046E30
:10086800000E056E200E066E820E076E42C000F066
:1008780043C001F044C002F045C003F0BDDC000EE7
:10088800D8B0010E006E00521BE042C000F043C019
:1008980001F044C002F045C003F0CD0E046ECC0E4A
:1008A800056E4C0E066E7B0E076E13DD00C042F01F
:1008B80001C043F002C044F003C045F0472ACED738
:1008C800FF0E4214086EFF0E4314096E7F0E441487
:1008D8000A6E000E45140B6E08C004F009C005F03E
:1008E8000AC006F00BC007F0043604900536063639
:1008F8000736000E4214006E000E4314016E000EFF
:100908004414026EFF0E4514036E00C042F001C08D
:1009180043F002C044F003C045F004504210006E9A
:1009280005504310016E06504410026E07504510E2
:10093800036E00C042F001C043F002C044F003C09F
:1009480045F07F0E455C006E00C041F0010E456E1B
:1009580000C004F042C000F043C001F044C002F0FF
:1009680045C003F0045007E0003600900136023617
:100978000336FF0FF8D700C042F001C043F002C0B1
:1009880044F003C045F03EC0E1FF3FC0E2FF4550E0
:10099800300FE66E3E4A3F2A800E4718006E800EE2
:1009A800010A005C08E3800E060A006E800E4718F4
:1009B800005C01E30AD03EC0E1FF3FC0E2FF2E0E1B
:1009C800E66E3E4A3F2A010E466E060E416E4150C3
:1009D800000A54E0456A42C000F043C001F044C038
:1009E80002F045C003F000360090013602360336A7
:1009F8000036009001360236033642500026435036
:100A08000122445002224550032200C042F001C096
:100A180043F002C044F003C045F042C000F043C0B8
:100A280001F044C002F045C003F0003600900136E2
:100A38000236033600C042F001C043F002C044F061
:100A480003C045F03EC0E1FF3FC0E2FF4550300F14
:100A5800E66E3E4A3F2A4650000A0EE147064750D6
:100A6800000A0AE13EC0E1FF3FC0E2FF2E0EE66E3B
:100A78003E4A3F2A010E466E4106A9D7FF0E3E2484
:100A8800E96EFF0E3F20EA6EEE50300A05E1010ED6
:100A98003E5E000E3F5AF2D7FF0E3E24E96EFF0E6F
:100AA8003F20EA6EEE502E0A04E1010E3E5E000E73
:100AB8003F5A4750000A41E03EC0E1FF3FC0E2FF15
:100AC800650EE66E3E4A3F2A800E4718006E800E7D
:100AD800000A005C0BE23EC0E1FF3FC0E2FF2D0EC2
:100AE800E66E3E4A3F2A47500008476E47C041F02D
:100AF800800E090A006E800E4718005C0EE20A0E8E
:100B0800046E41C000F08CDD3EC0E1FF3FC0E2FF53
:100B18000050300FE66E3E4A3F2A0A0E046E41C06E
:100B280000F07EDD08C000F03EC0E1FF3FC0E2FFFC
:100B38000050300FE66E3E4A3F2A3EC0E1FF3FC0FC
:080B4800E2FFE66A006A1200F8
:100B5000959695949598959A959C959E8396839451
:100B6000839E839C839A83988BEC00F08BEC00F03F
:100B70008BEC00F0838A8388838696EC00F0839662
:100B80008BEC00F0838696EC00F083968BEC00F003
:100B9000838696EC00F083968BEC00F08398838636
:100BA00096EC00F083968BEC00F0838696EC00F0D8
:100BB0008396839A838E838696EC00F083968BECE3
:100BC00000F0839E8388838696EC00F0839683985A
:100BD000838696EC00F083968BEC00F0838696EC8F
:100BE00000F083968388838696EC00F083968BECE6
:100BF00000F08398838696EC00F08396838E838C36
:100C0000838A8388838696EC00F083968BEC00F0D1
:040C10002780120027
:100C14000900F5CFE6FF0006FBE10106F9E1120049
:100C240000C008F00B6A0C6A9E0E036E0A6A026A20
:0C0C3400016A006A020E0C6E04DC120063
:100C40000050086E0150006E016A026A036A0B6A66
:100C50000C6A960E036E0A6A00C001F008C000F02C
:080C6000086A026A30DD12008F
:100C6800025006180E6E086A096A0B6A0350076478
:100C780027EF07F006500A6E068E028E03500B6EA1
:100C88000750036E000E0B6477EF06F00B50075EFB
:100C9800D8B418EF07F0070E0764E6EF06F0075E12
:100CA80000C008F001C000F002C001F0026A074E5F
:100CB80018EF07F00764BBEF06F0075E00C008F006
:100CC80001C000F0016A074E18EF07F0076499EFBA
:100CD80006F0075E00C008F0006A074E18EF07F03C
:100CE800076480EF06F00AC002F005C001F004C0F6
:100CF80000F0086A44EF08F0030E07648BEF06F073
:100D0800075E08380F0B086E074E18EF07F0D890EB
:100D18000832074E18EF07F0D8900832074E18EF40
:100D280007F0D890083218EF07F0030E0764AAEF0F
:100D380006F0075E08380F0B086E0038F00B08261F
:100D480000380F0B006E074E18EF07F0D8900032EE
:100D58000832074E18EF07F0D89000320832074ED5
:100D680018EF07F0D8900032083218EF07F0030E9A
:100D78000764D2EF06F0075E08380F0B086E0038DC
:100D8800F00B082600380F0B006E0138F00B002618
:100D980001380F0B016E074E18EF07F0D89001329B
:100DA80000320832074E18EF07F0D89001320032AF
:100DB8000832074E18EF07F0D89001320032083297
:100DC80018EF07F0030E076403EF07F0075E083813
:100DD8000F0B086E0038F00B082600380F0B006E5A
:100DE8000138F00B002601380F0B016E0238F00BAA
:100DF800012602380F0B026E074E18EF07F0D89045
:100E08000232013200320832074E18EF07F0D8904C
:100E18000232013200320832074E18EF07F0D8903C
:100E28000232013200320832096A000E0EAE0CEFAF
:100E380008F0081E001E011E021E082A00220122B8
:100E480002220CEF08F00750D8A42DEF07F044EF6A
:100E580008F0096A02C00AF0028E068E0750035C89
:100E6800076ED8B4FFEF07F0070E0764CDEF07F061
:100E7800075E0450096E0550046E0650056E066A3A
:100E8800074EFFEF07F0070E0764A2EF07F0075EB3
:100E98000450096E0550046E056A074EFFEF07F00F
:100EA800070E076480EF07F0075E0450096E046AB6
:100EB800074EFFEF07F0070E076467EF07F00AC059
:100EC80002F044EF08F0030E076472EF07F0075EC4
:100ED80009380F0B096E074EFFEF07F0D89009325B
:100EE800074EFFEF07F0D8900932074EFFEF07F0E3
:100EF800D8900932FFEF07F0030E076491EF07F06F
:100F0800075E09380F0B096E0438F00B0926043800
:100F18000F0B046E074EFFEF07F0D890043209322A
:100F2800074EFFEF07F0D89004320932074EFFEF63
:100F380007F0D89004320932FFEF07F0030E076478
:100F4800B9EF07F0075E09380F0B096E0438F00B8C
:100F5800092604380F0B046E0538F00B04260538F3
:100F68000F0B056E074EFFEF07F0D89005320432DD
:100F78000932074EFFEF07F0D890053204320932E4
:100F8800074EFFEF07F0D890053204320932FFEF21
:100F980007F0030E0764EAEF07F0075E09380F0B46
:100FA800096E0438F00B092604380F0B046E053857
:100FB800F00B042605380F0B056E0638F00B0526D6
:100FC80006380F0B066E074EFFEF07F0D890063273
:100FD800053204320932074EFFEF07F0D890063287
:100FE800053204320932074EFFEF07F0D890063277
:100FF800053204320932086A000E0EAE0CEF08F012
:10100800091E041E051E061E092A042205220622A0
:1010180009500826045000220550012206500222D9
:101028000EBE23EF08F0D8A032EF08F002320132EA
:1010380000320832033E32EF08F03EEF08F0D8B035
:1010480038EF08F0000E081E001E011E021E082AB6
:101058000022012202220A7E38EF08F0010E0C6EEF
:1010680023EC02F046EF08F0020E0C6E23EC02F0BF
:1010780046EF08F0040E0C6EF4EC00F046EF08F0B2
:06108800000E0C6E1200C8
:10108E000FD0800E3A6E19D0C00E3A6E16D0940E56
:10109E003A6E13D0D40E3A6E10D0800E3A6E0DD03A
:1010AE003A50010AEEE03A50020AEEE03A50030AD4
:1010BE00EEE03A50040AEEE0F0D73B04006E3A50F0
:1010CE00002600C03AF000C04CF0B6EC00F02790BD
:1010DE003E6A3E503C24E96E000E3D20EA6EEE5212
:1010EE000CE03E503C24E96E000E3D20EA6EEECF41
:0E10FE0048F067EC01F03E2AECD72780120084
:10110C009FEC08F09280946A826A410EC26E400E87
:10111C00C16E9E9C9D8CF28CF28E14DDC2840000FC
:04112C00FED7FFD714
:10113E0010EE19F00E0E006E010E016E300EF66EF0
:0E114E00110EF76E000EF86E0AEC06F012009D
:041130004E614E00BE
:02113400300089
:0411360000000000B5
:04113A00494E4600D4
:020000040030CA
:0D000100220F0EFF0181FF0FC00FE00F4026
:00000001FF
