:040000007DEF01F09F
:1000080000C018F001C017F00CC016F00DC015F0B4
:100018002450010A06E1190E2B6E000E2C6E54D9DD
:10002800246A010E2514016E0150000A11E121C055
:100038002BF0270E2C6E000E2D6E7DD8010E2B6E28
:10004800070E2C6E270E2D6E000E2E6E00D9212A5B
:1000580081CF22F0F290252A18C000F017C001F0D5
:0A00680016C00CF015C00DF01100D9
:100072000F0E0C6E470E0D6E0D2EFED70C2EFCD7FA
:0600820000000000120066
:0600880000000000120060
:0A008E00210E0D6E0D2EFED712009C
:1000980032BE02D0839E01D0838E32BC02D0839CB4
:1000A80001D0838C32BA02D0839A01D0838A32B8C5
:1000B80002D0839801D0838826B002D0838401D0EF
:1000C80083948386DDDF839632B602D0839E01D087
:1000D800838E32B402D0839C01D0838C32B202D09A
:1000E800839A01D0838A32B002D0839801D0838862
:1000F80026B002D0838401D083948386C1DF83969F
:0C01080026A002D0B2DF01D0BEDF120042
:0C011400269031C032F0BEDF26801200C1
:10012000086A080E0C6E003408360450085ED8B019
:0E01300002D00826D89000360C2EF5D712000B
:10013E002E6A030E2E5C0AE22E502C24E16E000E67
:10014E002D20E26E200EE66E2E2AF3D72E502C2492
:10015E00E16E000E2D20E26EE66A2E062E502C2445
:10016E002F6E000E2D20306E0A0E046E2BC000F086
:10017E00D0DF08C000F0300E00262FC0E1FF30C0E7
:10018E00E2FF00C0E6FF0A0E046E2BC000F0C1DFD6
:10019E0000C02BF00050000A01E102D02E06DED77F
:0201AE0012003D
:1001B000959695949598959A959C959E83968394FB
:1001C000839E839C839A839854DF53DF52DF838A14
:1001D0008388838659DF83964CDF838655DF839639
:1001E00048DF838651DF839644DF839883864CDF24
:1001F00083963FDF838648DF8396839A838E838648
:1002000043DF839636DF839E838883863DDF839634
:100210008398838639DF83962CDF838635DF839648
:100220008388838631DF839624DF839883862CDF5F
:100230008396838E838C838A8388838625DF839647
:0602400018DF2680120009
:100246000900F5CFE6FF0006FBE10106F9E1120021
:100256000FD0800E2B6E19D0C00E2B6E16D0940EBA
:100266002B6E13D0D40E2B6E10D0800E2B6E0DD0AD
:100276002B50010AEEE02B50020AEEE02B50030A47
:10028600EEE02B50040AEEE0F0D72C04006E2B5063
:10029600002600C02BF000C032F0FBDE26902F6A4D
:1002A6002F502D24E96E000E2E20EA6EEE520BE042
:1002B6002F502D24E96E000E2E20EA6EEECF31F07F
:0A02C60026DF2F2AEDD72680120054
:1002D0002D6A2D502B24E96E000E2C20EA6EEE5272
:1002E0000BE02D502B24E96E000E2C20EA6EEECF91
:0A02F00031F010DF2D2AEDD71200C7
:1002FA00540E196E750E1A6E720E1B6E6E0E1C6EF1
:10030A006F0E1D6E3A0E1E6E200E1F6E206A070EAD
:10031A00C16E956AF00E936E816A45DFF19E81CFB8
:10032A0022F0F290F286F28E216A236A256A010E81
:08033A00246EF280FFD7FFD70B
:020000040030CA
:0D000100220F0EFF0181FF0FC00FE00F4026
:00000001FF
