:0400000059EF01F0C3
:1000080000C018F001C017F00CC016F00DC015F0B4
:10001800E3D800C019F000C01CF085D881CF1BF0D0
:10002800F29018C000F017C001F016C00CF015C00F
:040038000DF01100B6
:10003C000F0E0C6E470E0D6E0D2EFED70C2EFCD730
:06004C000000000012009C
:0600520000000000120096
:0A005800210E0D6E0D2EFED71200D2
:100062000B6A0A6A096A00500402F4CF09F0F3CF5E
:1000720008F001500502F4CF0BF0F3CF0AF0005064
:100082000502F3500926F4500A22E86A0B220150B5
:100092000402F3500926F4500A22E86A0B2208C02F
:1000A20000F009C001F00AC002F00BC003F0120018
:1000B2002BBE02D0839E01D0838E2BBC02D0839CA8
:1000C20001D0838C2BBA02D0839A01D0838A2BB8B9
:1000D20002D0839801D083881AB002D0838401D0E1
:1000E20083948386B5DF83962BB602D0839E01D09C
:1000F200838E2BB402D0839C01D0838C2BB202D08E
:10010200839A01D0838A2BB002D0839801D083884E
:100112001AB002D0838401D08394838699DF8396B8
:0C0122001AA002D08ADF01D096DF120084
:0C012E001A901CC02BF0BEDF1A801200DB
:10013A000900F5CFE6FF0006FBE10106F9E112002E
:10014A00959695949598959A959C959E8396839461
:10015A00839E839C839A83986CDF6BDF6ADF838A32
:10016A008388838671DF839664DF83866DDF839657
:10017A0060DF838669DF83965CDF8398838664DF2A
:10018A00839657DF838660DF8396839A838E83867E
:10019A005BDF83964EDF839E8388838655DF839653
:1001AA008398838651DF839644DF83864DDF839667
:1001BA008388838649DF83963CDF8398838644DF7E
:1001CA008396838E838C838A838883863DDF839696
:0601DA0030DF1A80120064
:1001E0001D6A100E1E6E310E1F6E320E206E330E03
:1001F000216E340E226E350E236E360E246E370EAF
:10020000256E380E266E390E276E2A0E286E300E99
:10021000296E230E2A6E1A0E0C6EF80E0D6E0D2E20
:10022000FED70C2EFCD700001C6A040E1C5C0BE2EF
:100230001E508114016E0150000A01E104D01E36E7
:100240001E901C2AF2D7010E816EF00E8114016EF1
:100250000150F00A08E081CF00F00036009000C0A5
:1002600081FF1D2AF2D7816A060E0C6E300E0D6ECC
:100270000D2EFED70C2EFCD70000F00E8114016E5F
:100280000150F00AF1E1030E006E000E016E1CC079
:1002900004F0000E056EE5DE1F0E0026000E0122A2
:1002A0001D500024E96E000E0120EA6EEECF00F032
:0202B00012003A
:1002B200070EC16E956AF00E936E816A45DFF19E5C
:0E02C20081CF1BF0F290F286F28EFFD7FFD7AD
:020000040030CA
:0D000100220F0EFF0181FF0FC00FE00F4026
:00000001FF
