:0400000095EF00F088
:1000080000C018F00BC017F00CC016F00DC015F0AA
:100018001A6A1950000A2EE1040E826E030E0B6E46
:10002800080E0C6E770E0D6E0D2EFED70C2EFCD71B
:100038000B2EFAD7080E826E030E0B6E080E0C6E8E
:10004800770E0D6E0D2EFED70C2EFCD70B2EFAD781
:10005800010E826E030E0B6E080E0C6E770E0D6E7F
:100068000D2EFED70C2EFCD70B2EFAD7030E826E60
:10007800010E196E81B043D01950010A40E11A6A85
:10008800020E1A5C3AE2010E826E030E0B6E080E27
:100098000C6E770E0D6E0D2EFED70C2EFCD70B2E88
:1000A800FAD7080E826E030E0B6E080E0C6E770ED2
:1000B8000D6E0D2EFED70C2EFCD70B2EFAD7040E84
:1000C800826E030E0B6E080E0C6E770E0D6E0D2EE3
:1000D800FED70C2EFCD70B2EFAD7020E826E030E1B
:1000E8000B6E080E0C6E770E0D6E0D2EFED70C2EB5
:1000F800FCD70B2EFAD71A2AC3D7030E826EF292B8
:1001080018C000F017C00BF016C00CF015C00DF0A9
:020118001100D4
:10011A000900F5CFE6FF0006FBE10106F9E112004E
:10012A00196A070EC16E946A9380010E826E030EDD
:10013A000B6E080E0C6E770E0D6E0D2EFED70C2E62
:10014A00FCD70B2EFAD7020E826E030E0B6E080E28
:10015A000C6E770E0D6E0D2EFED70C2EFCD70B2EC5
:10016A00FAD7060E826E9380F19CF292F288F28E92
:04017A00FFD7FFD7D5
:020000040030CA
:0E000000000C1F1EFF8381FF0FC00FE00F409A
:00000001FF
