:04000000B6EF00F067
:1000080000C018F00BC017F00CC016F00DC015F0AA
:100018001950000A20E1020E826E030E0B6E080EC4
:100028000C6E770E0D6E0D2EFED70C2EFCD70B2EF8
:10003800FAD7060E826E030E0B6E080E0C6E770E44
:100048000D6E0D2EFED70C2EFCD70B2EFAD7040EF4
:10005800826E010E196E81B073D01950010A70E1D9
:10006800060E826E030E0B6E080E0C6E770E0D6E6A
:100078000D2EFED70C2EFCD70B2EFAD7020E826E51
:10008800030E0B6E080E0C6E770E0D6E0D2EFED73E
:100098000C2EFCD70B2EFAD7030E826E030E0B6EB6
:1000A800080E0C6E770E0D6E0D2EFED70C2EFCD79B
:1000B8000B2EFAD7010E826E030E0B6E080E0C6E15
:1000C800770E0D6E0D2EFED70C2EFCD70B2EFAD701
:1000D800090E826E030E0B6E080E0C6E770E0D6EF7
:1000E8000D2EFED70C2EFCD70B2EFAD7080E826EDB
:1000F800030E0B6E080E0C6E770E0D6E0D2EFED7CE
:100108000C2EFCD70B2EFAD70C0E826E030E0B6E3C
:10011800080E0C6E770E0D6E0D2EFED70C2EFCD72A
:100128000B2EFAD7040E826E030E0B6E080E0C6EA1
:10013800770E0D6E0D2EFED70C2EFCD70B2EFAD790
:10014800F29218C000F017C00BF016C00CF015C0E2
:040158000DF0110095
:10015C000900F5CFE6FF0006FBE10106F9E112000C
:10016C00196A070EC16E946A9380010E826E030E9B
:10017C000B6E080E0C6E770E0D6E0D2EFED70C2E20
:10018C00FCD70B2EFAD7030E826E9380F19CF29261
:08019C00F288F28EFFD7FFD7B5
:020000040030CA
:0D000100220F0EFF0181FF0FC00FE00F4026
:00000001FF
